:020000040800F2
:10000000C807002099010008B9400008BB4000085B
:10001000BF400008C3400008C740000800000000BF
:10002000000000000000000000000000CB400008BD
:10003000CD40000800000000CF400008D14000087B
:10004000B3010008B3010008B3010008B3010008C0
:10005000B3010008B3010008B3010008B3010008B0
:10006000B3010008B3010008B3010008B3010008A0
:10007000B3010008B3010008B3010008B301000890
:10008000B3010008B3010008B3010008B301000880
:10009000B3010008B3010008B3010008B301000870
:1000A000B3010008B3010008B3010008B301000860
:1000B000B3010008B30100082F350008B3010008A0
:1000C000B3010008B3010008B3010008B301000840
:1000D000B301000889300008B3010008B30100082B
:1000E000B3010008B3010008B301000800F002F8F2
:1000F00000F042F80AA090E8000C82448344AAF180
:100100000107DA4501D100F037F8AFF2090EBAE87D
:100110000F0013F0010F18BFFB1A43F0010318473B
:1001200080AA0000A0AA0000103A24BF78C878C1B5
:10013000FAD8520724BF30C830C144BF04680C60ED
:10014000704700000023002400250026103A28BF35
:1001500078C1FBD8520728BF30C148BF0B60704739
:10016000642907F0DD82782907F0168300207047A4
:100170001FB51FBD10B510BD07F06AFD1146FFF792
:10018000F7FF03F04FFE07F088FD03B4FFF7F2FF1F
:1001900003BC00F041F900000948804709480047C6
:1001A000FEE7FEE7FEE7FEE7FEE7FEE7FEE7FEE727
:1001B000FEE7FEE704480549054A064B7047000084
:1001C000B7020008ED000008C8010020C8070020A1
:1001D000C8030020C80300200CB500200190009047
:1001E0006C48006840F480306A49086000BF694884
:1001F000006800F4003000900198401C01900098C5
:1002000018B90198B0F5A06FF1D16248006800F408
:10021000003010B10120009001E000200090009813
:10022000012843D15C48006840F010005A4908603A
:100230000846006820F0030008600846006840F0A7
:1002400002000860534840685249486008464068C8
:1002500048600846406840F480604860084640684E
:1002600020F47C1048600846406840F4E81048607C
:100270000846006840F08070086000BF454800688C
:1002800000F000700028F9D04248406820F00300D8
:10029000404948600846406840F00200486000BF9E
:1002A0003C48406800F00C000828F9D10CBD10B59E
:1002B000FFF792FF10BD10B53648006840F001000E
:1002C000344908600846406834490840314948606C
:1002D00008460068324908402E4908600846006810
:1002E00020F4802008600846406820F4FE00486042
:1002F0004FF41F008860FFF7DAFF4FF000602949D4
:10030000086010BD10B5002100200022214B5B6861
:1003100003F00C0121B1042906D0082928D107E0F7
:10032000214B224C236027E01F4B204C236023E00D
:10033000184B5B6803F47010164B5B6803F4803253
:10034000022303EB904022B9194B4343174C23601F
:100350000DE0104B5B6803F4003323B1144B4343AF
:10036000124C236003E0104B4343104C236003E026
:100370000D4B0E4C236000BF00BF064B5B68C3F300
:1003800003130C4CE15C094B1B68CB40074C23600A
:1003900010BD000000100240002002400000FFF8E5
:1003A000FFFFF6FE08ED00E000127A0000000020DA
:1003B00000093D000400002000EBC001C9004FF01F
:1003C000E0225161002191610521116100BF4FF0D0
:1003D000E021096901F480310029F8D004214FF0AF
:1003E000E0221161704700B5034603E04FF47A70D4
:1003F000FFF7E2FF181EA3F10103F7D100BD10B50E
:10040000044603E04FF47A70FFF7EDFF201EA4F1DD
:100410000104F7D110BD000000BF704700BF244A9F
:10042000128802F04002002AF9D0C2B2204B1B1DF4
:100430001A80704710B586B00446012144F20500C9
:1004400000F0ECFD4FF40070ADF8140003208DF8BF
:10045000160018208DF8170005A9164800F022FB99
:100460004FF48060ADF8140004208DF8170005A942
:10047000104800F017FB01940020ADF80800ADF81B
:100480000A00ADF80C00ADF810000C20ADF80E001D
:1004900001A9074801F077FD012240F225510448E7
:1004A00001F009FE0121024801F0F9FD06B010BD7E
:1004B000003801400008014031490143314A1160D0
:1004C000704770B5002100230F22C47804B32D4C6F
:1004D000246804F4E064C4F5E064210AC1F1040373
:1004E000CA40447804FA03F1847814402143090196
:1004F000254C0678A155047804F01F050124AC4072
:1005000005786D11AD0005F1E025C5F8004109E061
:10051000047804F01F050124AC401C4D06787611C8
:1005200045F8264070BD1A4A0A400243154B1B1F6E
:100530001A60704739B1134A121D12680243114BF9
:100540001B1D1A6006E00F4A121D126882430D4BF4
:100550001B1D1A607047042808D14FF0E02109697B
:1005600041F004014FF0E022116107E04FF0E0217B
:10057000096921F004014FF0E02211617047000089
:100580000000FA050CED00E000E400E080E100E08E
:1005900080FFFF1F10B50446FA48844208D10121AC
:1005A000401500F055FD0021601500F051FD17E0E9
:1005B000F548844208D10121001500F049FD0021D1
:1005C000201500F045FD0BE0F048844208D10121E0
:1005D000C80300F03DFD00214FF4004000F038FD5D
:1005E00010BD30B50246002000235068E84C204082
:1005F0000D790C6844EA0524204350609068E54C6E
:100600002040D1E902542C434D7944EA450420436B
:100610009060D06A20F470000C7C641EE4B2234326
:1006200040EA0350D06230BD002101600171417188
:100630008160C16001210174704721B1826842F07C
:100640000102826003E0826822F00102826070474A
:1006500021B1826842F48072826003E0826822F4F1
:1006600080728260704710B50023CBB21AB1446823
:100670001C43446002E044689C43446010BD8168B0
:1006800041F0080181607047014600208A6802F04D
:1006900008020AB1012000E000207047816841F0A3
:1006A000040181607047014600208A6802F004025C
:1006B0000AB1012000E00020704721B1826842F4B5
:1006C000A002826003E0826822F4A0028260704788
:1006D000014600208A6802F480020AB1012000E08D
:1006E0000020704710B50A4600210023416821F41C
:1006F0006041531E41EA4331416010BD21B142685F
:1007000042F40062426003E0426822F40062426008
:100710007047F0B504460D4600200021092D11DD7B
:10072000E068A5F10A0606EB4607072606FA07F178
:100730008843A5F10A0606EB460603FA06F10843CC
:10074000E0600CE0206905EB4507072606FA07F193
:10075000884305EB450603FA06F108432061072AA2
:100760000FDA606B561E06EB86071F2606FA07F1A6
:100770008843561E06EB860605FA06F108436063B9
:1007800022E00D2A0FDA206BD61F06EB86071F2604
:1007900006FA07F18843D61F06EB860605FA06F12E
:1007A0000843206310E0E06AA2F10D0606EB86071D
:1007B0001F2606FA07F18843A2F10D0606EB86060E
:1007C00005FA06F10843E062F0BD21B1826842F407
:1007D0008012826003E0826822F480128260704797
:1007E0000146C86C80B2704766484C30006870475C
:1007F00021B1426842F48062426003E0426822F420
:1008000080624260704721B1426842F48052426087
:1008100003E0426822F48052426070470A46002199
:10082000816821F4E04111438160704721B1826801
:1008300042F40042826003E0826822F40042826057
:10084000704721B1826842F40212826003E082683C
:1008500022F4021282607047014600208A6802F486
:1008600000120AB1012000E000207047F0B50446F4
:100870001546002000220026092911DDE068A1F1BB
:100880000A0707EB470C072707FA0CF29043A1F180
:100890000A0707EB470703FA07F21043E0600CE092
:1008A000206901EB410C072707FA0CF2904301EB9A
:1008B000410703FA07F210432061A06BC0F3015611
:1008C000EF1C06F1010CA7EB0C0707EB870C1F27A9
:1008D00007FA0CF29043EF1C06F1010CA7EB0C0792
:1008E00007EB870701FA07F21043A063F0BD10B5CC
:1008F0000A4600210023816B21F44011531E41EA76
:100900000351816310BD08B5002300930090009B44
:100910000B440093009B1A6008BD08B502460020F6
:100920000090009201F12800009B1844009000986C
:10093000006880B208BD0A4600214168164B194084
:100940001143416070474162826270470A4600214C
:10095000416821F01F0111434160704740B10949CE
:100960000831096841F40001064A0832116007E0C5
:1009700004490831096821F40001024A0832116073
:10098000704700000024014000280140003C014065
:10099000FFFEF0FFFDF7F1FFFFFD3FFF02460020E5
:1009A00013680B400BB1012000E000207047CA43E0
:1009B0000260704770B502460020002300240B122D
:1009C0005568CEB205EA060415681D4015B10CB194
:1009D000012000E0002070BD00220A12D343036012
:1009E0007047000010B50446CC48844208D101216C
:1009F000042000F02DFB0021042000F029FB46E03C
:100A0000C748844208D10121082000F021FB0021C1
:100A1000082000F01DFB3AE0C248844208D10121C1
:100A2000102000F015FB0021102000F011FB2EE03B
:100A3000BD48844208D10121202000F009FB00219B
:100A4000202000F005FB22E0B848844208D10121B3
:100A5000402000F0FDFA0021402000F0F9FA16E0F5
:100A6000B348844208D10121802000F0F1FA00212E
:100A7000802000F0EDFA0AE0AE48844207D101215F
:100A8000801500F0E5FA0021A01500F0E1FA10BD94
:100A900010B50121084600F0DBFA0021012000F02A
:100AA000D7FA10BD2DE9F0410246002500260020AE
:100AB00000230024002791F803C00CF00F0591F8E3
:100AC00003C00CF0100CBCF1000F03D091F802C071
:100AD0004CEA050591F800C0BCF1000F31D0146854
:100AE00000202BE04FF0010C0CFA00F3B1F800C02D
:100AF0000CEA03069E4220D183004FF00F0C0CFA43
:100B000003F7BC4305FA03FC4CEA040491F803C064
:100B1000BCF1280F06D14FF0010C0CFA00FCC2F812
:100B200014C00AE091F803C0BCF1480F05D14FF0A2
:100B3000010C0CFA00FCC2F810C0401C0828D1D3EC
:100B40001460B1F800C0BCF1FF0F34DD5468002020
:100B50002EE000F1080C4FF0010808FA0CF3B1F890
:100B600000C00CEA03069E4221D183004FF00F0C17
:100B70000CFA03F7BC4305FA03FC4CEA040491F8B1
:100B800003C0BCF1280F05D100F1080C08FA0CF8DD
:100B9000C2F8148091F803C0BCF1480F07D100F1EE
:100BA000080C4FF0010808FA0CF8C2F81080401C3D
:100BB0000828CED35460BDE8F0814FF6FF71018064
:100BC000022181700421C1707047024600209368A1
:100BD0000B400BB1012000E00020704701468868FF
:100BE00080B2704702460020D3680B400BB1012051
:100BF00000E0002070470146C86880B2704701617C
:100C00007047416170470AB1016100E0416170477E
:100C1000C16070474FF480320A4382618161826112
:100C200082698269704702460020434B18684FF67C
:100C30008073184040EA021008433F4B1860704729
:100C40003E49C8617047F0B50A46002300240021E0
:100C5000002500F00046B6F1004F02D1364EF16992
:100C600001E0354E7168C0F3034583B200F44016CD
:100C7000B6F5401F08D121F070612F4E766826F03E
:100C800070662D4F7E6012E000F48016B6F5801F6E
:100C900006D1032606FA05F4A14341F0706106E08F
:100CA000460D360103FA06F6B14341F0706122B1F8
:100CB000460D360103FA06F6314300F00046B6F160
:100CC000004F02D11C4EF16101E01B4E7160F0BD7E
:100CD00030B500228B071C0F0F2303FA04F2164BCA
:100CE00008338C1053F824309343134C08348D1080
:100CF00044F8253023468C1053F824308C07240FF9
:100D000000FA04F423430C4C08348D1044F82530C9
:100D100030BD0A49DC31086070470000000801401E
:100D2000000C014000100140001401400018014077
:100D3000001C014000200140000001400000204252
:100D4000DF48006840F00100DD490860084640685F
:100D5000DC490840DA49486008460068DA4908403A
:100D6000D74908600846006820F4802008600846DB
:100D7000406820F4FE0048604FF41F008860704710
:100D8000CF49096821F48031CD4A116011460968C4
:100D900021F480211160B0F5803F03D0B0F5802FA1
:100DA0000ED106E0C649096841F48031C44A116099
:100DB00007E0C349096841F4A021C14A116000E07D
:100DC00000BF00BF704710B501460022002300207D
:100DD0004A11012A02D1BA4C236806E0022A02D144
:100DE000B74C236A01E0B64C636A01F01F0201248C
:100DF00094401C400CB1012000E0002010BD38B52B
:100E0000002000900024002500BF3120FFF7DBFF09
:100E100005460098401C00900098B0F5A06F01D0E6
:100E2000002DF2D03120FFF7CEFF08B1012400E001
:100E30000024204638BD01460020A14A106820F059
:100E4000F80040EAC10010607047A0490860704790
:100E5000024600209A4B586820F47C1042EA0103B5
:100E60001843974B58607047984908667047014689
:100E70000020934A506820F00300084350607047F8
:100E80008F48406800F00C007047014600208C4AF3
:100E9000506820F0F0000843506070470146002081
:100EA000874A506820F4E06008435060704701466C
:100EB0000020834A506820F4605040EAC10050602E
:100EC000704729B17E4A527A02437D4B5A7204E040
:100ED0007B4A527A82437A4B5A7270477B49D831A7
:100EE0000860704701460020754A506820F4404071
:100EF0000843506070470021714A20321170704AD7
:100F000082F82010012802D004280AD104E001212F
:100F10006B4A2032117005E00521694A20321170B8
:100F200000E000BF00BF704769490860704764492E
:100F3000096A0143624A1162704765494439086091
:100F4000704730B500210022002400235C4D6D68FD
:100F500005F00C0121B1042905D0082923D105E0B1
:100F60005C4D056022E05B4D05601FE0544D6D68EF
:100F700005F47012524D6D6805F48034022505EBBE
:100F800092421CB9544D554305600BE04C4D6D68C1
:100F900005F400351DB1504D5543056002E04D4D3F
:100FA0005543056002E04B4D056000BF00BF444D56
:100FB0006D6805F0F0010909484D6B5C0568DD407E
:100FC00045603F4D6D6805F4E061090A434D6B5C77
:100FD0004568DD4085603A4D6D6805F46051C90A89
:100FE0003E4D6B5C4568DD40C560354D6D6805F470
:100FF0004041890B3A4D6B5CC568B5FBF3F5056163
:1010000030BD29B12E4A526902432D4B5A6104E08A
:101010002B4A526982432A4B5A61704729B1284AA8
:1010200092690243264B9A6104E0254A9269824301
:10103000234B9A61704729B1214AD2690243204B60
:10104000DA6104E01E4AD26982431D4BDA617047BF
:1010500029B11B4AD2680243194BDA6004E0184AEE
:10106000D2688243164BDA60704729B1144A12697C
:101070000243134B1A6104E0114A12698243104B78
:101080001A61704712494039086070470F49C864B7
:1010900070470B49C87170470948406A40F080703A
:1010A00007494862704701460020054A92680A4095
:1010B0000AB1012000E000207047014988727047A2
:1010C000001002400000FFF8FFFFF6FE0000424261
:1010D0008004424200127A0000093D0019000020FD
:1010E0002900002010B50446FE48844208D10121A1
:1010F000C014FFF7ADFF0021E014FFF7A9FFC4E023
:10110000B4F1804F08D101210846FFF7AEFF00215E
:101110000120FFF7AAFFB8E0F348844208D101217B
:101120000220FFF7A2FF00210220FFF79EFFACE0A4
:10113000EE48844208D101210420FFF796FF0021E8
:101140000420FFF792FFA0E0E948844208D1012182
:101150000820FFF78AFF00210820FFF786FF94E0B0
:10116000E448844208D101211020FFF77EFF0021CE
:101170001020FFF77AFF88E0DF48844208D1012180
:101180002020FFF772FF00212020FFF76EFF7CE098
:10119000DA48844208D101214014FFF759FF0021A9
:1011A0006014FFF755FF70E0D548844209D1012152
:1011B000C804FFF74DFF00214FF40020FFF748FF60
:1011C00063E0D048844209D101210805FFF740FFC0
:1011D00000214FF48010FFF73BFF56E0CA488442DD
:1011E00009D101214805FFF733FF00214FF400101A
:1011F000FFF72EFF49E0C548844208D10121402075
:10120000FFF733FF00214020FFF72FFF3DE0C048EC
:10121000844208D101218020FFF727FF0021802090
:10122000FFF723FF31E0BB48844208D1012180153C
:10123000FFF71BFF0021A015FFF717FF25E0B648B9
:10124000844209D101210804FFF702FF00214FF475
:101250008030FFF7FDFE18E0B048844209D101213B
:101260004804FFF7F5FE00214FF40030FFF7F0FED1
:101270000BE0AB48844208D101218804FFF7E8FE67
:1012800000214FF48020FFF7E3FE10BD002202880A
:10129000944B98420ED0994B98420BD0B0F1804FAE
:1012A00008D0914B984205D0904B984202D0904B79
:1012B000984204D14FF68F731A404B881A438D4BD6
:1012C000984207D08C4B984204D04FF6FF431A4007
:1012D000CB881A4302808B8883850B880385814BDA
:1012E00098420BD0854B984208D08B4B984205D042
:1012F0008A4B984202D08A4B984201D10B7A0386DE
:1013000001238382704770B5002400220023058CDE
:101310004FF6FE7635400584028C8388048B4FF6A9
:101320008F752C40B51E2C400D882C43751E2A400D
:101330000D892A434D882A436A4DA8420BD06F4D30
:10134000A84208D0744DA84205D0744DA84202D0DE
:10135000734DA84213D14FF6F7752A404D892A43A1
:101360004FF6FB752A408D882A434FF6FF652B40C8
:101370004FF6FF552B408D892B43CD892B4383801E
:101380000483CD888586028470BD70B50024002258
:101390000023058C4FF6EF7635400584028C838858
:1013A000048B48F6FF752C404FF6FF452C400D8806
:1013B0004FF6FF7606EA05252C434FF6DF752A40E7
:1013C0000D8906EA05152A434D8806EA05152A43C4
:1013D000444DA84202D0494DA8421DD14FF67F7519
:1013E0002A404D894FF6FF7606EA05152A434FF647
:1013F000BF752A408D8806EA05152A434FF6FF354A
:101400002B404FF2FF752B408D8906EA85052B4353
:10141000CD8906EA85052B4383800483CD88058723
:10142000028470BD70B5002400220023058C4FF6A5
:10143000FF6635400584028C8388848B4FF68F7558
:101440002C404FF6FC752C400D882C434FF6FF5571
:101450002A400D894FF6FF7606EA05252A434D8876
:1014600006EA05252A431F4DA84202D0234DA84273
:101470001DD14FF2FF752A404D894FF6FF7606EADF
:1014800005252A434FF6FF352A408D8806EA0525B3
:101490002A434EF6FF752B404DF6FF752B408D8984
:1014A00006EA05152B43CD8906EA05152B438380F3
:1014B0008483CD888587028470BD70B500220023A7
:1014C0000024058C4EF6FF7635400584038C848815
:1014D000828B48F6FF752A404FF6FF452A400D885B
:1014E00020E00000002C0140000400400008004003
:1014F000000C004000100040001400400034014087
:10150000004C0140005001400054014000180040D0
:10151000001C004000200040004001400044014009
:10152000004801404FF6FF7606EA05252A434DF6AE
:10153000FF752B400D8906EA05352B434D8806EAD9
:1015400005352B43FA4DA84202D0FA4DA84208D1E6
:101550004BF6FF752C408D894FF6FF7606EA851510
:101560002C4384808283CD88A0F84050038470BDD2
:10157000828B4FF2FF331A408283828B4FF6FF73C8
:1015800003EA01231A4382837047F0B50C461546DF
:10159000002200210026078C4EF6FF7C07EA0C078C
:1015A0000784828B018C4FF6FF7707EA043640F6FA
:1015B000FF473A404FF6FF7707EA05273A434FF6D1
:1015C000FF7707EA03373A43D94FB8420ED0D94FD5
:1015D000B8420BD0B0F1804F08D0D74FB84205D0F9
:1015E000D64FB84202D0D64FB84206D14DF6FF775B
:1015F000394046F48057394305E047F6FF573940F4
:1016000044F48057394382830184F0BD828B4FF6C6
:10161000F3731A408283828B0A4382837047F0B54A
:101620000C461546002200210026078C4FF6FF6C61
:1016300007EA0C070784828B018C4FF6FF7707EAD5
:1016400004264FF60C773A404FF6FF7707EA031768
:101650002F433A43B64FB8420ED0B64FB8420BD0E4
:10166000B0F1804F08D0B44FB84205D0B34FB84264
:1016700002D0B34FB84206D14FF6FF57394046F477
:101680008077394305E04FF2FF57394044F48077C3
:10169000394382830184F0BD028B4FF2FF331A403D
:1016A0000283028B4FF6FF7303EA01231A4302837E
:1016B0007047F0B50C461546002200210026078C25
:1016C0004FF6EF7C07EA0C070784028B018C4FF67C
:1016D000FF7707EA041640F6FF473A404FF6FF77D8
:1016E00007EA03373A434FF6FF7707EA05273A43FD
:1016F0008F4FB8420ED08F4FB8420BD0B0F1804F11
:1017000008D08D4FB84205D08C4FB84202D08C4FD4
:10171000B84206D14FF6DF77394046F0100739431B
:1017200005E04FF65F77394044F0100739430283F4
:101730000184F0BD028B4FF6F3731A400283028BD3
:101740000A4302837047F0B50C461546002200217B
:10175000068C4FF6FE773E400684028B018C4FF6D6
:101760000C7632407E1C06EA03162E433243704E3E
:10177000B0420ED06F4EB0420BD0B0F1804F08D0C7
:101780006D4EB04205D06D4EB04202D06C4EB042AC
:1017900006D14FF6FD76314044F00106314305E0B5
:1017A0004FF6F576314044F001063143028301845F
:1017B000F0BD70B505460C465D4885420ED05D48CB
:1017C00085420BD0B5F1804F08D05B48854205D0EB
:1017D0005A48854202D05A48854200D100E000BFF5
:1017E000208850B92389A28861882846FFF7ABFF7B
:1017F000E1882846FFF79EFF25E0208804280AD1CB
:101800002389A28861882846FFF753FFE18828468C
:10181000FFF742FF17E0208808280AD12389A28811
:1018200061882846FFF7FBFEE1882846FFF7EEFEB9
:1018300009E02389A28861882846FFF7A6FEE1888F
:101840002846FFF795FE70BD2DE9F04105460C4690
:1018500000260127608808B9022600E00026A0883B
:10186000012801D1022700E001272088A0B923899F
:10187000A28861882846FFF766FFE1882846FFF7BF
:1018800059FF23893A4631462846FFF712FFE1887F
:101890002846FFF701FF13E02389A28861882846C4
:1018A000FFF707FFE1882846FFF7F6FE23893A464F
:1018B00031462846FFF747FFE1882846FFF73AFF01
:1018C000BDE8F0810A884B881A438B881A43CB887D
:1018D0001A430B891A434B891A438B891A43A0F880
:1018E000442070474FF6FF71818000210180C18044
:1018F0004180017270470021018041808180C18058
:10190000018141818181C181704700210180418035
:10191000012181800021C180018170470021018067
:1019200041808180C18001814181818170470000B7
:10193000002C014000340140000400400008004039
:10194000000C004021B1028842F00102028004E054
:1019500002884FF6FE731A400280704731B1B0F82A
:10196000442042F40042A0F8442005E0B0F84420AE
:10197000C2F30E02A0F8442070471AB183890B43CA
:10198000838102E083898B43838170478182704722
:1019900041EA0203A0F8483070471AB183890B432B
:1019A000838102E083898B438381704701894FF6ED
:1019B000F8721140018170470A46002101894FF6F3
:1019C0008F73194011430181704730B504460D46AD
:1019D00029462046FFF7F0FF208940F007002081CC
:1019E00030BD2DE9F04104460D4616461F46602DD8
:1019F00006D13B46012231462046FFF75AFE05E05C
:101A00003B46012231462046FFF79DFE29462046EF
:101A1000FFF7D2FF208940F007002081BDE8F08168
:101A200030B50C4600210189C9B24FF6FF7505EAB1
:101A30000325154325432943018130BD2DE9F0419C
:101A400005460E4617469846002443463A46314618
:101A50002846FFF7E5FF2C894FF6F870044044F064
:101A600007044FF68F70044044F070042C81BDE8E9
:101A7000F081F0B504460D4616461F463B463246F9
:101A800029462046FFF7CCFF208940F48040208182
:101A9000F0BD0185828270470A46002101884FF619
:101AA0008F731940114301807047F0B50C461546FD
:101AB0001E460021002200230189028B038C4FF671
:101AC000F877394021434FF6FC473A4040F201177E
:101AD0003A434FF6DD773B404FF6FF7707EA0617AC
:101AE0002F433B43018102830384F0BD0A4600215A
:101AF000018B4FF68F7319401143018370470A46DB
:101B00000021018B48F6FF7319404FF6FF7303EA7B
:101B100002231943018370470A460021818B4FF647
:101B20008F7319401143818370470A460021818BCE
:101B300048F6FF7319404FF6FF7303EA0223194377
:101B40008183704721B1028842F08002028004E064
:101B500002884FF67F731A400280704721B1828855
:101B600042F00402828004E082884FF6FB731A4040
:101B70008280704721B1828842F00802828004E0AE
:101B800082884FF6F7731A408280704721B18288AD
:101B900042F00102828004E082884FF6FE731A4010
:101BA000828070470A460021018B4FF6F773194077
:101BB0001143018370470A460021018B4FF2FF73E6
:101BC00019404FF6FF7303EA02231943018370475C
:101BD0000A460021818B4FF6F77319401143818328
:101BE00070470A460021818B4FF2FF7319404FF670
:101BF000FF7303EA02231943818370470A460021D9
:101C0000018B4FF6FB7319401143018370470A465D
:101C10000021018B4FF6FF3319404FF6FF7303EAA3
:101C200002231943018370470A460021818B4FF636
:101C3000FB7319401143818370470A460021818B51
:101C40004FF6FF3319404FF6FF7303EA022319439F
:101C5000818370470A460021018B4FF67F7319403C
:101C60001143018370470A460021018BC1F30E0125
:101C70004FF6FF7303EA02231943018370470A46B4
:101C80000021818B4FF67F73194011438183704788
:101C90000A460021818BC1F30E014FF6FF7303EA60
:101CA00002231943818370470A460021018C4FF6B5
:101CB000FD7319401143018470470A460021018CCD
:101CC0004FF6F77319401143018470470A4600210B
:101CD000018C4FF6DF7319404FF6FF7303EA0213CE
:101CE0001943018470470A460021018C4FF67F7327
:101CF00019404FF6FF7303EA02131943018470473A
:101D00000A460021018C4FF6FF5319404FF6FF732E
:101D100003EA02231943018470470A460021018C1B
:101D20004FF2FF7319404FF6FF7303EA0223194382
:101D3000018470470A460021018C4DF6FF7319405B
:101D40004FF6FF7303EA023319430184704730B53D
:101D5000002301248C40A3B2048C9C430484048C93
:101D600002FA01F5ADB22C43048430BD30B5002336
:101D700004248C40A3B2048C9C430484048C02FA97
:101D800001F5ADB22C43048430BD70B5034600208C
:101D900000241846183001258D40ACB21D8CA54397
:101DA0001D8409B1082909D100EB6100056825F0FF
:101DB000700505600568154305600EE00D1FC5F34D
:101DC0004E052844056825F4E045056005684FF692
:101DD000FF7606EA02263543056070BD21B1028810
:101DE00042F00202028004E002884FF6FD731A40BE
:101DF0000280704721B1028842F00402028004E0B0
:101E000002884FF6FB731A400280704721B1828826
:101E100042F08002828004E082884FF67F731A408D
:101E20008280704702884FF6F7731A40028002885A
:101E30000A430280704782884FF68F731A4082806F
:101E400082880A438280704702894FF6F8731A40ED
:101E5000028102890A430281704702894FF67F732B
:101E60001A40028102890A430281704781847047C7
:101E700081857047818670470187704781877047E9
:101E8000A0F84010704702884FF6FF431A400280C6
:101E900002880A43028070470146888E70470146D7
:101EA000088F70470146888F70470146B1F840009F
:101EB00070470146888C70470146088D704702467E
:101EC0000020138A0B400BB1012000E00020704776
:101ED000CA430282704730B5024600200023002426
:101EE000158A05EA0103958905EA010413B10CB1CD
:101EF000012000E0002030BDCA430282704700008C
:101F000010B50446FB48844209D101218803FFF73C
:101F10009FF800214FF48040FFF79AF832E0F6482E
:101F2000844209D101214804FFF79FF800214FF4B2
:101F30000030FFF79AF825E0F048844209D10121EA
:101F40008804FFF792F800214FF48020FFF78DF806
:101F500018E0EB48844209D10121C804FFF785F855
:101F600000214FF40020FFF780F80BE0E5488442A1
:101F700008D101210805FFF778F800214FF48010FF
:101F8000FFF773F810BD2DE9F04786B005460E4601
:101F90000024A24600BFA1460027B08900B100BFBF
:101FA0002F462C8A4CF6FF700440F08804432C82A4
:101FB000AC894EF6F3100440B0883189084371892A
:101FC00008430443AC81AC8A4FF6FF400440B0891B
:101FD0000443AC8201A8FEF7B4FFC648874202D191
:101FE000DDF810A001E0DDF80CA0A88900F40040A5
:101FF00040B10AEBCA0000EB0A1031684900B0FB9F
:10200000F1F807E00AEBCA0000EB0A10316889001A
:10201000B0FBF1F86420B8FBF0F004012009642162
:1020200001FB1089A88900F4004040B1322000EB88
:10203000C900B0FBF1F000F00700044308E03220D3
:1020400000EB09106421B0FBF1F000F00F00044335
:102050002C8106B0BDE8F0874FF4165101600021D5
:102060008180C18001810C214181002181817047E3
:1020700010B502460020108A4FF2FF0318400B886B
:102080004C8823438C882343CC88234318431082F5
:1020900010BD0021018041808180C180704721B145
:1020A000828942F40052828104E082894DF6FF73F6
:1020B0001A4082817047F0B50346002400260025AF
:1020C000002040F66A17B94200D100BF1846C1F39C
:1020D000421401F01F06012707FA06F5012C01D171
:1020E0000C3004E0022C01D1103000E014301AB1A1
:1020F00007682F43076002E00768AF430760F0BD41
:102100001AB1838A0B43838202E0838A8B438382E2
:102110007047028A4FF6F0731A400282028A0A431D
:102120000282704782894FF2FF731A40828182894E
:102130000A438281704721B1828942F00202828182
:1021400004E082894FF6FD731A4082817047028A4B
:102150004FF6DF731A400282028A0A4302827047F6
:1021600021B1028A42F48042028204E0028A4BF6E4
:10217000FF731A4002827047C1F3080282807047E1
:1021800001468888C0F308007047818941F0010149
:1021900081817047028BD2B20283028B42EA012214
:1021A00002837047028B02F47F420283028B0A4350
:1021B0000283704721B1828A42F02002828204E0C9
:1021C000828A4FF6DF731A408282704721B1828A79
:1021D00042F01002828204E0828A4FF6EF731A40C6
:1021E0008282704721B1828A42F00802828204E032
:1021F000828A4FF6F7731A408282704721B1828932
:1022000042F40042828103E08289C2F30E0282819D
:10221000704721B1828A42F40062828204E0828A9D
:102220004FF2FF731A4082827047828A4FF6FB7327
:102230001A408282828A0A438282704721B1828A4E
:1022400042F00202828204E0828A4FF6FD731A4055
:102250008282704702460020B1F5007F00D100BFA6
:1022600013880B400BB1012000E00020704701F4FF
:102270000072B2F5007F00D100BFCA4302807047F0
:1022800070B50246002400230025002040F66A169F
:10229000B14200D100BFC1F3421501F01F03012676
:1022A00006FA03F3012D02D19689334006E0022D90
:1022B00002D1168A334001E0968A33400C1201267F
:1022C00006FA04F41688344013B10CB1012000E082
:1022D000002070BD10B50022002340F66A14A14210
:1022E00000D100BF0A1201249440A3B2DC43048051
:1022F00010BD00000038014000440040004800408C
:10230000004C00400050004008B500F083FD00F094
:1023100094FD01210420FEF781FE48208DF8030082
:10232000C020ADF8000003208DF802006946FE4889
:10233000FEF7B8FB08BD10B54021FB48FEF745FC91
:1023400078B91420FEF74FF800BF4021F648FEF799
:102350003CFC0028F9D01420FEF745F80120F34991
:1023600008808021F048FEF730FC78B91420FEF791
:102370003AF800BF8021EC48FEF727FC0028F9D08E
:102380001420FEF730F80220E8490880E748B0F949
:10239000000010BD10B5E6480088404200B2E44994
:1023A00008800020E1490880E1480088012802D126
:1023B000462000F0EDFCDE48B0F90000401C28B9D2
:1023C000002000F09DFC002000F0BEFC00F03BFD72
:1023D0006420FEF708F800F030FD10BD70B5BDE0D8
:1023E000D44AD549D54803F0A1FED5480088012834
:1023F00000D1B8E0D349087806F0C4FF0446D249BA
:1024000006F076FED1490860CE49487806F0BAFF5A
:102410000446CD4906F06CFECD490860C94988786C
:1024200006F0B0FF0446C84906F062FEC9490860DC
:10243000C449087806F0A6FF0446C34906F058FED2
:10244000C2490860BF49487806F09CFF0446BE496F
:1024500006F04EFEBE490860BA49887806F092FF41
:102460000446B94906F044FEBA490860BAA20121FF
:10247000022000F0C6FA2E220621022000F08AFA7D
:10248000B248006806F046FF0446022322460421B3
:10249000184600F0D4FAAC49AC48006806F0BAFF20
:1024A000054606F01BFF642190FBF1F201FB1204CC
:1024B000022322460721184600F0C1FAA7A20121F3
:1024C000032000F09EFA2E220621032000F062FA7B
:1024D0009F48006806F01EFF04460223224604219E
:1024E000032000F0ACFA98499948006806F092FF82
:1024F000054606F0F3FE642190FBF1F201FB1204A5
:10250000022322460721032000F099FA94A2012118
:10251000042000F076FA2E220621042000F03AFA78
:102520008C48006806F0F6FE044602232246042189
:10253000084600F084FA84498648006806F06AFF7D
:10254000054606F0CBFE642190FBF1F201FB12047C
:10255000022322460721042000F071FAFFF7EBFE68
:1025600000283FF43DAF00BF70BD10B54EE0714A8A
:102570007149724803F0DAFD6E48006806F0AEFE5D
:102580000446022322460721042000F07AFAFFF7CE
:10259000D2FE012821D173480078012812D00228E8
:1025A00002D0032815D106E002206F4908700320ED
:1025B0006C4908700DE003206B49087001206949DF
:1025C000087006E00120684908700220654908701B
:1025D00000BF00BF00205549088064A201210846C1
:1025E00000F00FFA0123604802780621184600F037
:1025F00026FAFFF7A0FE022808D15E480068404294
:102600005C49086001204E49088003E04C4800887E
:102610000028ACD000BF10BD70B5EDE0454A46497A
:10262000464803F083FD46480088012800D1E8E0D1
:102630004449087806F0A6FE0446434906F058FDD2
:102640004D4908603F49487806F09CFE04463E49E3
:1026500006F04EFD494908603A49887806F092FE36
:102660000446394906F044FD454908603549087873
:1026700006F088FE0446344906F03AFD3E490860FB
:102680003049487806F07EFE04462F4906F030FDBA
:102690003A4908602B49887806F074FE04462A49B6
:1026A00006F026FD364908602BA20121022000F029
:1026B000A8F92E220621022000F06CF92E480068AD
:1026C00006F028FE0446022322460421184600F0A4
:1026D000B6F91D492848006806F09CFE054606F03C
:1026E000FDFD642190FBF1F201FB1204022322465E
:1026F0000721184600F0A3F918A20121032000F0D9
:1027000080F92E220621032000F044F91B480068BE
:1027100006F000FE0446022322460421032000F0B6
:102720008EF9094915482DE00008014038000020C5
:102730003A000020500000204C00002048000020FB
:1027400030000020260100200000C8426000002068
:1027500064000020680000204B703A004B693A008A
:102760004B643A003E000020A40000204D6F6465D9
:102770003A0000003400002084000020880000207F
:102780008C000020006806F045FE054606F0A6FD18
:10279000642190FBF1F201FB12040223224607217F
:1027A000032000F04CF9AFF248020121042000F0B0
:1027B00028F92E220621042000F0ECF812480068C7
:1027C00006F0A8FD0446022322460421084600F034
:1027D00036F90E490C48006806F01CFE054606F066
:1027E0007DFD642190FBF1F201FB120402232246DD
:1027F0000721042000F023F9FFF79DFD00283FF496
:102800000DAF00BF70BD00008C0000200000C8426A
:1028100008B501210820FEF701FC14208DF8030003
:1028200003208DF802004FF48060ADF80000694687
:10283000FD48FEF737F94FF40060ADF80000694637
:10284000F948FEF72FF901229102F748FEF7DBF96C
:102850000122D102F448FEF7D6F908BD10B50122D5
:10286000D102F148FEF7CFF901229102EE48FEF7BE
:10287000CAF900224FF40061EB48FEF7C4F90022C8
:102880004FF48061E848FEF7BEF910BD10B5002294
:102890004FF40061E448FEF7B6F901229102E248E4
:1028A000FEF7B1F90122D102DF48FEF7ACF910BD05
:1028B00070B50546002419E080202041284008B169
:1028C000012000E0002002464FF40061D648FEF7E8
:1028D0009AF901229102D448FEF795F900224FF4AB
:1028E0008061D148FEF78FF9601CC4B2082CE3DB8D
:1028F00001229102CC48FEF786F900224FF4806154
:10290000C948FEF780F970BD10B50446FFF7A6FF71
:102910007820FFF7CDFF0020FFF7CAFF2046FFF722
:10292000C7FFFFF7B3FF10BD10B50446FFF796FFD2
:102930007820FFF7BDFF4020FFF7BAFF2046FFF7E2
:10294000B7FFFFF7A3FF10BD70B505460C4645F075
:10295000B000FFF7D9FF102141EA1410FFF7D4FFB0
:1029600004F00F00FFF7D0FF70BD70B500240EE03B
:1029700000212046FFF7E8FF002504E00020FFF7D4
:10298000D3FF681CC5B2802DF8DB601CC4B2082CD4
:10299000EEDB70BD2DE9F04105460E461746721E6E
:1029A000D206110E6A1E5206100EFFF7CDFF00244C
:1029B00009E0A7F120019D4A02EB0111085DFFF734
:1029C000B3FF601CC4B2082CF3DB721ED206110EDA
:1029D0006A1E012303EB4202D0B2FFF7B5FF0024C9
:1029E0000BE0A7F12001914A02EB011204F108016A
:1029F000505CFFF799FF601CC4B2082CF1DBBDE806
:102A0000F0812DE9F04107460E461546002407E007
:102A10002A5D3019C1B23846FFF7BCFF601CC4B252
:102A2000285D0028F4D1BDE8F08110B502460120F0
:102A300000E050430B1EA1F10101FAD110BD2DE9B8
:102A4000F04780460E4617461D46002415E0281B19
:102A5000411E0A20FFF7E9FFB7FBF0F00A21B0FBA7
:102A6000F1F201FB120000F130093019C1B24A46FF
:102A70004046FFF78FFF601CC4B2AC42E7DBBDE805
:102A8000F0872DE9F0478146884615461E46002D01
:102A900006DB2B2241464846FFF77CFF2F4605E028
:102AA0002D2241464846FFF775FF6F42002417E08C
:102AB000301B411E0A20FFF7B8FFB7FBF0F00A21D8
:102AC000B0FBF1F201FB120000F1300A08EB040048
:102AD000401CC1B252464846FFF75CFF601CC4B2BE
:102AE000B442E5DBBDE8F0872DE9F04781460E46AC
:102AF00090461F4600241DE0381B411E1020FFF7A2
:102B000094FFB8FBF0F000F00F050A2D08DA05F18C
:102B10003000C2B23019C1B24846FFF73BFF07E0B0
:102B200005F13700C2B23019C1B24846FFF732FF93
:102B3000601CC4B2BC42DFDBBDE8F0872DE9F04782
:102B400080460E4617461D46002412E0281B411EF3
:102B50000220FFF76AFFB7FBF0F000F0010000F180
:102B600030093019C1B24A464046FFF713FF601CD6
:102B7000C4B2AC42EADBBDE8F08770B5002406E0E1
:102B8000002500E06D1CB5F57A7FFBD3641CB4F51D
:102B90007A7FF5D3FFF73CFEAE20FFF7B5FED520D8
:102BA000FFF7B2FE8020FFF7AFFEA820FFF7ACFED4
:102BB0003F20FFF7A9FED320FFF7A6FE0020FFF776
:102BC000A3FE4020FFF7A0FEA120FFF79DFEC82036
:102BD000FFF79AFEDA20FFF797FE1220FFF794FE28
:102BE0008120FFF791FECF20FFF78EFED920FFF75F
:102BF0008BFEF120FFF788FEDB20FFF785FE3020FB
:102C0000FFF782FEA420FFF77FFEA620FFF77CFEE1
:102C10008D20FFF779FE1420FFF776FEAF20FFF737
:102C200073FEFFF7A2FE70BD000C0140EA9700089A
:102C300000B589B00121C802FEF7F0F90121042096
:102C4000FEF7ECF918208DF823004001ADF82000C4
:102C500003208DF8220008A91D48FDF723FF1D4819
:102C6000FEF7A4FE05A8FEF73DFE0020ADF81A0011
:102C7000ADF816006320ADF818002320ADF814005D
:102C800000208DF81C0005A91248FEF7FFFA01A8E4
:102C9000FEF731FE6020ADF804000020ADF80C0016
:102CA0000120ADF806000020ADF80A0001A909488E
:102CB000FEF729FB01A90748FEF767FB012105483C
:102CC000FEF740FE01210348FEF748FE09B000BDB3
:102CD00000080140002C014008B501210820FEF742
:102CE0009DF910208DF803004FF47040ADF80000FE
:102CF00003208DF8020069464448FDF7D3FE08BD65
:102D000010B50446002C0DDB4FF480413F48FDF721
:102D100076FF4FF400413D48FDF773FFA1B23C48F8
:102D2000FFF7AAF8002C0EDA4FF480413748FDF780
:102D300068FF4FF400413548FDF761FF604281B202
:102D40003348FFF799F810BD10B50446002C0DDB91
:102D50004FF480512D48FDF754FF4FF400512B489C
:102D6000FDF74DFFA1B22A48FFF784F8002C0EDAD8
:102D70004FF480512548FDF742FF4FF4005123489E
:102D8000FDF73FFF604281B22148FFF773F810BDA5
:102D900010B504462046FFF7D7FF2046FFF7B0FFE7
:102DA00010BD70B505460C46B5F90000401C50B981
:102DB0002188494208B2FFF7C7FF2188494208B27B
:102DC000FFF79EFF18E02888012809D1B4F9000018
:102DD000FFF7BAFF21881E3908B2FFF791FF0BE019
:102DE0002888022808D121881E3908B2FFF7ACFFD5
:102DF000B4F90000FFF784FF70BD10B50020FFF7A5
:102E0000A3FF0020FFF77CFF10BD0000000C014075
:102E1000002C014008B501210820FEF7FFF8102022
:102E20008DF803002020ADF8000003208DF802008B
:102E300069460848FDF736FE08BD10B52021054853
:102E4000FDF7DDFE10BD10B520210248FDF7D9FECB
:102E500010BD0000000C014000B587B00121480200
:102E6000FEF7DCF801210420FEF7D8F84FF400400B
:102E7000FEF738F800208DF81B000420ADF818008C
:102E800003208DF81A0006A92148FDF70BFE052343
:102E9000012219461F48FDF73CFC002001900490D8
:102EA0004FF46020039000208DF809008DF8080091
:102EB00001208DF8140001A91648FDF792FB0121AD
:102EC0001448FDF7BAFB1348FDF7D9FB00BF1148C2
:102ED000FDF7DAFB0128FAD00E48FDF7DFFB00BF53
:102EE0000C48FDF7E0FB0128FAD007B000BD10B593
:102EF00001210848FDF7E1FB00BF02210548FDF76D
:102F00004DFD0028F9D00348FDF76AFC10BD000014
:102F1000000801400024014000B587B001210920CC
:102F2000FEF77CF801218803FEF778F801210420E0
:102F3000FDF789FE4020ADF8140003208DF816003F
:102F400018208DF8170005A96F48FDF7ABFD80200C
:102F5000ADF8140004208DF8170005A96A48FDF7A4
:102F6000A1FD4FF4165001900020ADF80800ADF817
:102F70000A00ADF80C00ADF810000C20ADF80E0002
:102F800001A96248FEF7FFFF01216048FFF787F8BB
:102F9000012240F225515D48FFF78DF825208DF87C
:102FA000180000208DF819008DF81A0001208DF806
:102FB0001B0006A8FDF785FA07B000BD10B5044652
:102FC00021465248FFF7D8F800BF80214F48FFF74D
:102FD00041F90028F9D010BD70B505460E46002411
:102FE00004E0285DFFF7EAFF601C84B2B442F8DB1E
:102FF00070BD70B50446002504E0605DFFF7DEFF9C
:10300000681CC5B2605D0028F7D170BD10B50246DE
:10301000012000E050430B1EA1F10101FAD110BDC7
:103020002DE9F04106460C46002512E0601B411ECA
:103030000A20FFF7EBFFB6FBF0F00A21B0FBF1F23C
:1030400001FB120000F130073846FFF7B7FF681C9C
:10305000C5B2A542EADBBDE8F08110B5FF20FFF75D
:10306000ADFF04212A48FFF7B7FFFE20FFF7A6FFB8
:1030700010BD28480088012804D100202549088077
:10308000012070470020FCE710B540F225511F4891
:10309000FFF7F6F8012836D11C48FFF771F8C4B2E3
:1030A0001D48007840B9FF2C27D101201A4908702B
:1030B00000201A49087020E017480078012810D134
:1030C000174816490978445414480078401C13499D
:1030D00008700846007803280FDB02200E490870AC
:1030E0000BE00D480078022807D1FE2C05D1002006
:1030F0000949087001200749088040F2255103481A
:10310000FFF7E8F800BF10BD000C01400038014097
:10311000F400002040000020440000204500002072
:10312000260100202DE9F04F87B004468946154658
:103130001E46DDF840A0B9F8000001287DD1012E1F
:103140007CD1BAF1010F0CD10020BF490860BF4902
:103150000860BF490860BF490860BF490860BF49AF
:103160000860012D02D1B94920680860B84920687B
:103170000860B8480068B8490860B5480168B348B5
:10318000006806F045FAB34908600846006805F093
:1031900015FF0746B24AB34B05F000FCCDE902012A
:1031A000AE48006805F00AFFCDE90001DDE9022321
:1031B00005F060F9CDE9040105F02AF9A749086096
:1031C000A448006805F0FAFE21F0004107460022FD
:1031D000A54B05F0E1FC30D29F4801689D4800688E
:1031E00006F016FA8346A1480168584606F012F91F
:1031F00007469A4801689E48006806F00BF9834626
:10320000944801689B48006806F004F95946059007
:1032100005F000FF8046394605F0FCFE8A4908604B
:1032200095498948006806F0C1F902D2924886495A
:10323000086092498448006801E002E11EE006F05F
:10324000B5F802D28D48804908607F4801688C48F3
:1032500006F0DEF9804606F041F807B23846FFF77F
:1032600073FD79480168864805F0D4FE804606F073
:1032700035F807B23846FFF743FDE2E0022EFCD1F5
:10328000BAF1010F0ED100207E4908607E49086026
:103290007E4908607B4908607D4908607D49086077
:1032A0007D490860012D02D177492068086077497F
:1032B00020680860764800687649086073480168AD
:1032C0007148006806F0A4F9714908600846006872
:1032D00005F074FE21F00041074600226F4B05F017
:1032E00021FB2DD26A48006805F068FE5C4A5D4B00
:1032F000CDE9000105F052FBCDE902016648006806
:1033000005F05CFE0746DDE9022305F0B3F8CDE9E0
:10331000040105F07DF86049086061495E48006875
:1033200006F044F902D25E485B4908605D495A489C
:10333000006806F03BF806D25A485749086002E098
:103340000020554908605248006805F037FE21F01A
:10335000004107460022544B05F01EFC71D24D4837
:1033600001684B48006806F053F983464F480168EE
:10337000584606F04FF80746474801684C48006831
:1033800006F048F88346424801684A48006806F05B
:1033900041F85946059005F03DFE8046394605F056
:1033A00039FE3849086044493648006806F0FEF89E
:1033B00002D241483349086040493248006805F06C
:1033C000F5FF02D23D482F49086000212D480068D2
:1033D00006F0ECF817D22B480168394805F01AFEC0
:1033E000804605F07BFF07B23846FFF7ADFC254865
:1033F0000168344806F00CF9804605F06FFF07B20B
:103400003846FFF77DFC00211E48006805F0CEFF1E
:1034100017D21C4801682B4805F0FCFD804605F0DA
:103420005DFF07B23846FFF78FFC16480168244855
:1034300006F0EEF8804605F051FF07B23846FFF778
:103440005FFC07B0BDE8F08F5C0000205400002056
:10345000580000206C000020700000207400002044
:103460009A9999999999B93F0000E03F6800002026
:10347000640000206000002000002041000020C106
:1034800000008C4280000020780000207C0000209A
:1034900090000020940000209800002000003E4092
:1034A0000000C8420000C8C20000F03F8C000020AD
:1034B000880000208400002000005041000050C11E
:1034C0000000A0410000A0C11FB501210420FDF7AC
:1034D000B2FD41F61F40ADF8040040F2E730ADF810
:1034E00008000020ADF80600ADF80A0001A919484F
:1034F000FDF7CCFE012211461648FEF73EFA4FF4C6
:10350000E060FCF7D9FF1E208DF8000000208DF848
:10351000010004208DF8020001208DF803006846A8
:10352000FCF7CFFF01210B48FEF70CFA1FBD10B5C9
:1035300001210848FEF7CFFC58B101200649088058
:1035400006480088401C0549088001210148FEF713
:10355000D3FC10BD00080040A00000209E00002009
:1035600070B504462578112D11D11348B0F900002B
:10357000401C60B910480088404200B20E490880E3
:10358000FEF708FF00200D490880206012E0112D91
:1035900010D10948008801280CD107480088404212
:1035A00000B205490880FEF7F5FE012003490880B6
:1035B0000020206070BD0000A2000020300000202C
:1035C00070B504460D462946204606F021F8064609
:1035D000FA49304605F0EAFF05D8F949304606F0C9
:1035E00017F8064609E0F749304605F0DFFE04D239
:1035F000F349304605F00EFD0646304670BD2DE914
:10360000F84304460D46F048007806287ED2DFE8ED
:1036100000F0034494D5FEFDEC480088002824DD2A
:10362000EBA201210220FFF7ECF9EB48008801280A
:1036300032D10020E8490880E4480088192801D1E7
:10364000012000E00020E5490880E0480088401E95
:10365000DE490880E14800780090E04802780123C4
:1036600029462046FFF75EFD16E0FFF7C6FBDC4962
:10367000206805F0CFFCDB4908600120D2490870C2
:103680001920D2490880FFF7DEFB6420FCF7ABFE6F
:10369000FFF7D3FBFFF769F93DE1D24821680068E5
:1036A000FFF78EFF804605F089FC21F000410646B9
:1036B0000022CD4B05F070FA31D2CCA201210220BC
:1036C000FFF79FF9CBA201210320FFF79AF9C54824
:1036D00021680068FFF774FF074605F0FFFD064606
:1036E0000523324607210320FFF7CBF9C3480078B2
:1036F000012809D10223024629460090B948FFF764
:1037000011FD0020BD490870002000E0FFE0022309
:103710000246294600902046FFF704FD0CE0FFF723
:103720006CFB0220A84908701920A84908800120D4
:10373000B2490870FFF719F9EDE0A44800880028A5
:1037400024DDAFA201210220FFF75BF9A248008827
:10375000012832D10020A04908809C4800881928FF
:1037600001D1012000E000209C4908809748008892
:10377000401E964908809948007800909748027842
:10378000012329462046FFF7CDFC16E0FFF735FB65
:103790009D49206805F03EFC9249086003208A4953
:1037A0000870192089490880FFF74DFB6420FCF759
:1037B0001AFEFFF742FBFFF7D8F8ACE08948216812
:1037C0000068FFF7FDFE804605F0F8FB21F00041A0
:1037D00006460022844B05F0DFF932D28BA201218C
:1037E0000220FFF70EF983A201210320FFF709F958
:1037F0007C4821680068FFF7E3FE074605F06EFD90
:103800000646052332460721032001E063E02AE053
:10381000FFF737F979480078012809D102230246D9
:10382000294600906F48FFF77DFC0020734908701F
:10383000002002230246294600902046FFF772FC32
:1038400010E0FFF7DAFA04205F49087019205F4999
:103850000880FFF7F8FA6420FCF7C5FDFFF7EDFAE2
:10386000FFF783F857E059480088002824DD69A253
:1038700001210220FFF7C5F857480088012829D107
:1038800000205549088051480088192801D101209D
:1038900000E00020514908804C480088401E4B49F8
:1038A00008804E48007800904C4802780123294651
:1038B0002046FFF737FC0DE0FFF79FFA052042494D
:1038C0000870FFF7C0FA6420FCF78DFDFFF7B5FA2A
:1038D000FFF74BF81FE0FFF790FA44A20121022006
:1038E000FFF78FF843A201210320FFF78AF83D4834
:1038F00021680068FFF764FE074605F0EFFC064606
:103900000523324607210320FFF7BBF803E005201B
:103910002D49087000BF00BFBDE8F8832DE9F843CA
:1039200004460D463D480078082846D2DFE800F0FE
:10393000047ACAF8F7F6F5F424480088002824DD54
:1039400023A201210220FFF75CF823480088012808
:1039500032D10020204908801C480088192801D154
:10396000012000E000202E49088018480088401EF1
:10397000164908802A4800780090294802780123D7
:1039800029462046FFF7CEFB16E0FFF736FA14492A
:10399000206805F03FFB1349086001201F490870AB
:1039A00019200A490880FFF74EFA6420FCF71BFD36
:1039B000FFF743FAFEF7D9FF10E20BE200003443B1
:1039C0000000B443000034C3A6000020AC00002077
:1039D0004D4F564531000000A0000020B0000020EF
:1039E0000000F042A8000020000020405455524E34
:1039F0003100000044696666723A0000AE000020A3
:103A00004D4F564532000000000070425455524E52
:103A1000320000004D4F564533000000A500002045
:103A2000B2000020EF4821680068FFF7C9FD80461A
:103A300005F0C4FA21F0004106460022EA4B05F0E9
:103A4000ABF831D2AFF25C0201210220FEF7D9FFC0
:103A5000AFF2600201210320FEF7D3FFE1482168A5
:103A60000068FFF7ADFD074605F038FC0646052364
:103A7000324607210320FFF704F8DC4800780128CC
:103A800009D10223024629460090D648FFF74AFB97
:103A90000020D649087000200223024629460090E3
:103AA0002046FFF73FFB0CE0FFF7A7F90220D049C3
:103AB00008701920CF4908800120CC490870FEF712
:103AC00054FF8BE1CB48008800282ADDAFF2D002FA
:103AD00001210220FEF795FFC7480088012837D151
:103AE0000020C5490880C3480088192801D1012059
:103AF00000E00020C1490880BE480088401EBD4942
:103B00000880BE4800780090BC480278012329460E
:103B10002046FFF707FB1BE03FE106E1B2E06FE064
:103B200017E0FFF76AF9B649206805F071FDAD4965
:103B300008600320AE4908701920AE490880FFF7DD
:103B400082F96420FCF74FFCFFF777F9FEF70DFFD1
:103B500044E1A44821680068FFF732FD804605F083
:103B60002DFA21F00041064600229F4B05F014F883
:103B700031D2AFF2681201210220FEF742FFAFF20C
:103B80008C1201210320FEF73CFF96482168006853
:103B9000FFF716FD074605F0A1FB06460523324652
:103BA00007210320FEF76DFF90480078012809D116
:103BB00002230246294600908A48FFF7B3FA002004
:103BC0008A490870002002230246294600902046B8
:103BD000FFF7A8FA13E0FFF710F9042084490870F2
:103BE000192084490880012080490870FFF72BF9CB
:103BF0006420FCF7F8FBFFF720F9FEF7B6FEEDE0D6
:103C00007C480088002825DDAFF2F812012102204F
:103C1000FEF7F7FE78480088012832D10020764967
:103C2000088074480088192801D1012000E0002094
:103C3000724908806F480088401E6E4908806F48AE
:103C4000007800906D480278012329462046FFF74E
:103C500069FA16E0FFF7D1F86A49206805F0D8FC48
:103C60006049086005206249087019206149088090
:103C7000FFF7E9F86420FCF7B6FBFFF7DEF8FEF784
:103C800074FEABE0574821680068FFF799FC804656
:103C900005F094F921F00041064600225A4B04F049
:103CA0007BFF30D259A201210220FEF7AAFEAFF21B
:103CB000BC2201210320FEF7A4FE4A4821680068C7
:103CC000FFF77EFC074605F009FB06460523324652
:103CD00007210320FEF7D5FE44480078012809D1CA
:103CE00002230246294600903E48FFF71BFA0020B7
:103CF0003E490870002002230246294600902046D3
:103D0000FFF710FA10E0FFF778F80620384908703E
:103D1000192038490880FFF796F86420FCF763FB08
:103D2000FFF78BF8FEF721FE58E0324800880028A4
:103D300024DD38A201210220FEF763FE2E48008810
:103D4000012829D100202C4908802A4800881928F8
:103D500001D1012000E00020284908802548008882
:103D6000401E2449088025480078009023480278A6
:103D7000012329462046FFF7D5F90DE0FFF73DF86E
:103D800007201B490870FFF75EF86420FCF72BFB47
:103D9000FFF753F8FEF7E9FD20E0FFF72EF81FA22A
:103DA00001210220FEF72DFEAFF2B83201210320DF
:103DB000FEF727FE0B4821680068FFF701FC074665
:103DC00005F08CFA06460523324607210320FEF74C
:103DD00058FE03E007200649087000BF00BFBDE899
:103DE000F8830000A800002000002040AE00002062
:103DF000A5000020AC000020A0000020B2000020A0
:103E00000000F0420000164300002E405455524E70
:103E1000330000004D4F56453400000053544F50BE
:103E20000000000008B5FEF7A8FEFEF755FFFFF7FB
:103E300013F8FCF740FAFFF76FF8FEF7F9FEFEF70C
:103E400063FA75A201210846FEF7DBFD02F024F9B2
:103E50003220FCF7C8FAFEF788FD73A2012108465C
:103E6000FEF7CFFD002074490880FEF77EFD73A2A7
:103E700001210220FEF7C5FDFEF777FB6420FCF769
:103E8000B2FAFEF772FDFEF785FA00206A49088053
:103E90002E220A210420FEF77DFDFFF715FBBAE074
:103EA0006B4A6C496C4802F041F96CA20121042074
:103EB000FEF7A7FD2E2209210420FEF76BFD6448C2
:103EC000006805F00BFA044603232246052104206E
:103ED000FEF7D7FD5E48006805F070F821F000415C
:103EE000074600225F4B04F059FD054604F0D6FC5E
:103EF00080B2642190FBF1F201FB120403232246FD
:103F00000A210420FEF79BFD57480088012869D14B
:103F10005648007801282BD15548007801280AD14D
:103F200003460246504900904948FFF7FBF800203D
:103F30004F49087007E00020012302464A490090DB
:103F40004348FFF7EFF84BA201210846FEF759FD61
:103F50004BA201210220FEF754FD4B48006805F0FA
:103F6000BDF904460523224619460220FEF789FDC5
:103F70003E480078022818D13B493548FFF73FFBFF
:103F800042A201210846FEF73CFD43A2092101207F
:103F9000FEF737FD4248006805F0BCF984B2032300
:103FA00022460E210120FEF74AFD30480078032802
:103FB00018D12D492648FFF7B1FC3AA20121084645
:103FC000FEF71FFD34A20A210120FEF71AFD344836
:103FD000006805F09FF984B2032322460E210120D8
:103FE000FEF72DFDFEF7A7F9022811D1FEF7D2F951
:103FF0002F48006840422E49086008460068401C6F
:1040000018B900201849088002E0012016490880EC
:104010002848FFF7A5FA43E76D70755F646D705F20
:10402000696E69740000000057616974696E6720E9
:10403000506172616D0000003800002057616974A2
:10404000696E6720746F20737461727400000000E1
:10405000500000204C000020480000205961773AB1
:10406000000000000000594030000020A4000020A3
:10407000B800002053747261696768740000000022
:104080004F75743A000000005C00002054726961B2
:104090006E676C6500000000205461723A000000F9
:1040A000A800002052656374616E676C65000000B3
:1040B0003400002026010020704700BFFEE700BF4B
:1040C000FEE700BFFEE700BFFEE77047704770479E
:1040D0007047000038B50446F74890F82400C0B196
:1040E00014B10220009001E000200090F24A126812
:1040F000D17BF14A526810786B46012203F071F9C6
:1041000010B14FF0FF3038BD9DF80010EA484174FF
:1041100023E0E948807A10B94FF0FF30F3E724B18B
:10412000E548407C08B10020EDE714B10120009083
:1041300001E000200090E04A1268D17BDE4A52681C
:1041400010786B46012203F04CF910B14FF0FF30AC
:10415000D9E79DF80010D84841740020D3E738B55E
:1041600000241FE0D4480068C07AA04204D0D2489E
:104170000068407DA04200D112E0CF49496808782C
:104180006B460122214603F077F810B14FF0FF3063
:1041900038BD9DF800202146C8A003F08DFA00BF6D
:1041A000601CC4B2C44840680079A042DADC002038
:1041B000EEE770B504460D46BF480068C07AA042DD
:1041C00004D0BD480068407DA04202D14FF0FF30CE
:1041D00070BDB94840680079A04202DC4FF0FF3062
:1041E000F6E7B549496808782B460122214603F0D5
:1041F00043F8EDE738B50446AF4890F82300A042F5
:1042000001D1002038BD14B13020009001E0002021
:104210000090A948807C20B19DF8000040F0020089
:104220000090A54890F8220020B19DF8000040F0D1
:1042300080000090A04A1268117D9F4A5268107851
:104240006B46012203F0CDF810B14FF0FF30D9E7F3
:10425000994880F823400020D4E738B5044604F09C
:10426000700010B10120009005E014B10020009012
:1042700001E040200090904A1268917C8E4A52687A
:1042800010786B46012203F0ACF820B100218A4877
:104290008172481E38BD9DF8000020F0400186481C
:1042A00001730020009004F0400020B99DF8000048
:1042B00040F00400009004F0200020B99DF80000B8
:1042C00040F00200009004F0100020B99DF80000BA
:1042D00040F00100009004F0080020B99DF80000B3
:1042E00040F038000090744A1268D17C724A5268DB
:1042F00010786B46012203F074F820B100216E485B
:104300008172481EC6E724B1082C02D00020FFF7B6
:1043100071FF69488472002101753220FCF763F84F
:104320000020B7E738B504466348807CA04201D13D
:10433000002038BD002C46D05F4A126811795E4AD1
:10434000526810786B46012202F096FF10B14FF0D0
:10435000FF30EEE79DF8000020F020000090564A64
:1043600012681179544A526810786B46012203F0A2
:1043700038F810B14FF0FF30DBE70320FCF733F8DB
:10438000022000904C4890F8220020B19DF80000D7
:1043900040F080000090484890F8230020B19DF83C
:1043A000000040F030000090434A1268117D424AFC
:1043B000526810786B46012203F013F8002851D0A0
:1043C0004FF0FF30B5E73C4A126811793A4A52681B
:1043D00010786B46012202F04FFF10B14FF0FF3012
:1043E000A7E73548807A00F0010028B19DF8000069
:1043F00040F02000009004E09DF8000020F0200034
:1044000000902D4A126811792B4A526810786B4639
:10441000012202F0E6FF10B14FF0FF3089E70320E0
:10442000FBF7E1FF244890F8220010B180200090B3
:1044300001E000200090204890F8230020B19DF872
:10444000000040F0300000901B4A1268117D1A4AAB
:10445000526810786B46012202F0C3FF10B14FF092
:10446000FF3066E714488474002062E708B51248FC
:10447000807A10B94FF0FF3008BD002000900E4A3E
:104480001268D17B0C4A526810786B46012202F008
:10449000A8FF10B14FF0FF30EEE7074A12685179DC
:1044A000054A526810786B46012202F09AFF68B103
:1044B0004FF0FF30E0E70000BC00002025233578F6
:1044C0003A20252335780D0A00000000F84A1268CA
:1044D0001179F74A526810786B46012202F081FF89
:1044E00010B14FF0FF30C7E7F14890F824000028E2
:1044F00053D00C200090EE4A12681179EC4A5268B1
:1045000010786B46012202F06CFF10B14FF0FF30C3
:10451000B2E73220FBF767FFC0200090E448807AC2
:1045200000F0010020B19DF8000040F02000009054
:10453000DF4A12681179DE4A526810786B46012210
:1045400002F04FFF10B14FF0FF3095E7D848407CA4
:1045500010B10220009001E000200090D44A1268BF
:10456000D17BD34A526810786B46012202F039FFA2
:1045700010B14FF0FF307FE700200090CC4A126866
:104580005179CB4A526810786B46012202F029FF1C
:10459000002855D04FF0FF306EE704200090C44A49
:1045A00012681179C24A526810786B46012202F0F3
:1045B00018FF10B14FF0FF305EE7BD48807C20B996
:1045C000BB48807A00F0010010B94020009001E063
:1045D00060200090B64A12681179B54A5268107886
:1045E0006B46012202F0FDFE10B14FF0FF3043E7B1
:1045F0003220FBF7F8FEAE48407C10B1012000905D
:1046000001E000200090AA4A1268D17BA84A5268B3
:1046100010786B46012202F0E4FE10B14FF0FF303B
:104620002AE7A34A12685179A14A52681078A04B30
:104630001033012202F0D5FE10B14FF0FF301BE71E
:10464000002019E770B50446002624F001049848BC
:1046500090F8240008B1002070BD9548807A10B908
:104660004FF0FF30F8E79248057C807A204090496F
:1046700008740846007CA04202D04FF0FF3600E0EC
:10468000002614B98A48007D18B10120FFF722FDE9
:1046900002E00020FFF71EFD3CB1FFF7E7FE20B16E
:1046A000834805744FF0FF30D6E73046D4E738B57D
:1046B00004467F48807A10B94FF0FF3038BDBC2CDB
:1046C00002DB0120009015E0622C02DB022000904A
:1046D00010E02A2C02DB032000900BE0142C02DBFC
:1046E0000420009006E00A2C02DB0520009001E087
:1046F000062000906E48C07A9DF80010884201D1D3
:104700000020DBE76A4A12689178694A526810789B
:104710006B46012202F065FE10B14FF0FF30CDE78D
:104720009DF800106248C1720020C7E738B5044602
:10473000282C02DD4FF0FF3038BDDCB90020FFF738
:1047400059FD00208DF8000007208DF80100584A1F
:104750001268917C564A526810786B46022202F029
:1047600040FE10B14FF0FF30E6E7002150480175E0
:104770000020E1E70120FFF73DFD20208DF800003B
:10478000012C06D100208DF801000520FFF78FFFD6
:1047900017E0052C06DC01208DF801000520FFF74D
:1047A00086FF0EE0142C06DC02208DF801000A20A2
:1047B000FFF77DFF05E003208DF801001420FFF7CF
:1047C00076FF9DF80100072101EB8010C0B28DF843
:1047D0000100374A1268917C354A526810786B465E
:1047E000022202F0FEFD10B14FF0FF30A4E70821D5
:1047F0002F48817200210173012101750020FFF70C
:1048000021FF002098E738B504462948807A10B97E
:104810004FF0FF3038BD264890F8240010B14FF01B
:10482000FF30F7E72248007D50B134B1282C04DC7A
:10483000E0B2FFF77BFF0020ECE70020FFF776FFF8
:10484000042C01DA042404E0B4F57A7F01DD4FF48E
:104850007A744FF47A7090FBF4F0401EC0B200906E
:10486000134A12685178124A526810786B46012236
:1048700002F0B7FD10B14FF0FF30CBE79DF800001C
:10488000401C4FF47A7191FBF0F081B20848C1816D
:104890000146C9894810FFF70AFF0020BAE738B57A
:1048A00004460348807A28B94FF0FF3038BD000035
:1048B000BC000020022C06D0042C07D0082C08D005
:1048C000102C0CD108E0002000900BE00820009094
:1048D00008E01020009005E01820009002E04FF062
:1048E000FF30E3E700BFF948407A9DF80010B0EBD5
:1048F000E10F01D10020D9E7F44A1268D179F34AD7
:10490000526810786B46012202F06BFD10B14FF037
:10491000FF30CBE79DF80000C110EC484172002049
:10492000C4E738B50446E948807A10B94FF0FF3043
:1049300038BDFA2C09D0B4F5FA7F09D0B4F57A7FE6
:1049400009D0B4F5FA6F0CD108E0002000900BE01C
:104950000820009008E01020009005E0182000904A
:1049600002E04FF0FF30E3E700BFD848007A9DF83F
:104970000010B0EBE10F01D10020D9E7D34A126853
:104980009179D24A526810786B46012202F029FDD3
:1049900010B14FF0FF30CBE79DF80000C010CB49BD
:1049A00008720020C4E71CB580208DF80000C74ABB
:1049B0001268917CC54A526810786B46012202F059
:1049C00010FD10B14FF0FF301CBD6420FBF70BFD54
:1049D00000208DF80000BD4A1268917CBB4A5268E5
:1049E00010786B46012202F0FCFC10B14FF0FF3052
:1049F000EAE7B64A1268917DB44A526810786B466D
:104A0000062202F039FC10B14FF0FF30DCE79DF8D0
:104A10000500C007400F9DF8031001F0010140EAB6
:104A200041009DF8011001F0010140EA010494B138
:104A3000012C03D10121A548C17431E0022C03D11E
:104A40000021A248C1742BE02146A1A002F034FE4F
:104A50004FF0FF30B8E79D4A1268D1789B4A526800
:104A600010786B46012202F007FC10B14FF0FF30C6
:104A7000AAE79DF8000000F00F042CB99E4802F050
:104A80001BFE4FF0FF309FE7042C06D19BA002F0E5
:104A900013FE01218D48C17402E000218B48C174CE
:104AA000FF218A488172FF2088490872FF218748C8
:104AB0004172C1724FF6FF71C181FF21017481748F
:104AC0000121017380F82210002180F82310417524
:104AD00001751630016041608160163880F824103D
:104AE00080F82510C1844FF4FA60FFF71AFF10B167
:104AF0004FF0FF3068E70220FFF7D1FE10B14FF012
:104B0000FF3061E72A20FFF7D2FD10B14FF0FF30F0
:104B10005AE73220FFF777FE10B14FF0FF3053E72E
:104B20000020FFF78FFD10B14FF0FF304CE7002061
:104B3000FFF7F8FB10B14FF0FF3045E70020FFF71B
:104B40008CFB002040E770477CB504460D465F486B
:104B5000807A00F0700010B94FF0FF307CBD5B4AE6
:104B60001268117B594A526810786B46062202F08F
:104B700083FB10B14FF0FF30F0E79DF801009DF886
:104B8000001040EA012000B220809DF803009DF84B
:104B9000021040EA012000B260809DF805009DF8F7
:104BA000041040EA012000B2A08015B12846FFF7AA
:104BB000CAFF0020D2E77CB504460D464348807A00
:104BC00000F0080010B94FF0FF307CBD3F4A12687A
:104BD000517B3E4A526810786B46062202F04CFB2D
:104BE00010B14FF0FF30F0E79DF801009DF8001084
:104BF00040EA012000B220809DF803009DF80210D9
:104C000040EA012000B260809DF805009DF8041084
:104C100040EA012000B2A08015B12846FFF793FFBB
:104C20000020D2E72DE9FE4F05460C462748807A42
:104C300018B94FF0FF30BDE8FE8F244A1268917B0F
:104C4000224A5268107802AB022202F015FB10B122
:104C50004FF0FF30EFE79DF809009DF8081040EA9B
:104C6000012006B214B12046FFF76DFF17494968CD
:104C7000C88804F087FB154901904968B1F908001C
:104C800004F068FB8346304604F064FB594600900C
:104C900004F0BEFC8246019904F02AFA81461F49BD
:104CA00004F0B8F980464FF08F4104F0B3FB07469B
:104CB00004F014FB28600020BDE710B588B004465E
:104CC0001CB94FF0FF3008B010BD29E0BC00002037
:104CD000556E737570706F7274656420736F66744F
:104CE000776172652070726F647563742072657687
:104CF0002025642E0A00000050AB000848616C6655
:104D00002073656E73697469766974792070617255
:104D10007420666F756E642E0A00000000000C425D
:104D2000206830B9606820B9A06810B9002008B0C8
:104D300010BDFA494968087806AB0322114602F013
:104D40009BFA10B14FF0FF30F1E79DF818000821F1
:104D500001EB201000F00F00ADF800009DF81900E5
:104D600001EB201000F00F00ADF802009DF81A00D2
:104D700001EB201000F00F00ADF8040020684100A6
:104D8000BDF90000403091FBF0F000B2ADF810002A
:104D900060684100BDF90200403091FBF0F000B2C4
:104DA000ADF81200A0684100BDF90400403091FB4D
:104DB000F0F000B2ADF81400D8494968087806ABA5
:104DC0000622114602F058FA10B14FF0FF30AEE75C
:104DD0009DF819009DF8181040EA012000B2ADF8C6
:104DE00008009DF81B009DF81A1040EA012000B24F
:104DF000ADF80A009DF81D009DF81C1040EA012046
:104E000000B2ADF80C00BDF81000BDF80810084461
:104E100000B2ADF81000BDF81200BDF80A10084449
:104E200000B2ADF81200BDF81400BDF80C10084433
:104E300000B2ADF81400BDF81000000A8DF818009B
:104E4000BDF81000C0B28DF81900BDF81200000ABC
:104E50008DF81A00BDF81200C0B28DF81B00BDF825
:104E60001400000A8DF81C00BDF81400C0B28DF8C3
:104E70001D00AA494968087806AB0622114602F0CF
:104E8000B0FA10B14FF0FF3051E700204FE7014674
:104E9000A248007A30B1012807D0022809D003289F
:104EA0000FD10AE0FA2008800EE04FF4FA70088073
:104EB0000AE04FF47A70088006E04FF4FA60088048
:104EC00002E00020088000BF00BF002070470146BC
:104ED0009248407A30B1012807D0022808D0032830
:104EE0000CD108E0022008700BE00420087008E0F4
:104EF0000820087005E01020087002E04FF0FF3035
:104F0000704700BF8548C07C18B108784006000E85
:104F100008700020F4E701468048C07A082817D2BC
:104F2000DFE800F01704070A0D101318BC200880F2
:104F300013E06220088010E02A2008800DE0142091
:104F400008800AE00A20088007E00520088004E0C5
:104F500000BF00BF0020088000BF00BF00207047D6
:104F600001466E4890F8240010B14FF0FF307047B2
:104F70006A48C08908800020F9E7014600200880BF
:104F8000401E704701464FF0FF30704701466348AE
:104F9000007A30B1012807D0022808D003280CD1AC
:104FA00008E05F4808600BE05E48086008E05E4883
:104FB000086005E05D48086002E04FF0FF30704790
:104FC00000BF0020FBE701465448407A30B1012879
:104FD00008D002280AD0032810D10BE04FF48040FB
:104FE00008800EE041F69C7008800AE04FF4805083
:104FF000088006E04FF40060088002E04FF0FF30C8
:10500000704700BF4548C07C10B108884010088038
:105010000020F5E701464148007C087000207047F9
:1050200001463E48807A10B10120087001E000205E
:1050300008700020704738B504463848807A10B9A7
:105040004FF0FF3038BD354A1268117C334A526840
:1050500010786B46022202F00FF910B14FF0FF30CA
:10506000F0E79DF801009DF8001040EA012000B231
:1050700020800020E6E72DE9FE4F0746884692464D
:105080001D46DDF830B000260024244890F82400A6
:1050900010B1601EBDE8FE8F002028701F48807A86
:1050A00010B94FF0FF30F5E71C48007C10B94FF005
:1050B000FF30EFE71948007C00F0400008B1B01C59
:1050C000C6B21648007C00F0200008B1B01CC6B281
:1050D0001248007C00F0100008B1B01CC6B20F48A6
:1050E000007C00F0080008B1B01DC6B20B4A12687F
:1050F000917A0A4A526810786B46022202F0BCF894
:1051000010B14FF0FF30C5E79DF801009DF8001089
:1051100040EA0129B1450BDA0020BBE7BC000020C2
:10512000000003430000834233330342333383419F
:10513000FC4840684088B9EB600F17DDF94A1268F7
:10514000517CF84A526810786B46012202F094F8BC
:1051500010B14FF0FF309DE79DF8000000F0100007
:1051600020B1FFF783F96FF0010093E75046FFF796
:10517000EAFCEC4A1268D17AEA4A526810786B4627
:10518000324602F079F810B14FF0FF3082E799FB18
:10519000F6F0401E8BF8000000202870B4422AD0A0
:1051A000E048007C00F0080028B3601C1DF80000F7
:1051B0001DF8041040EA012000B2A8F80000E01C2D
:1051C0001DF80010A01C1DF8000041EA002000B2EC
:1051D000A8F80200601D1DF80010201D1DF8000039
:1051E00041EA002000B2A8F80400287840F0080046
:1051F0002870A01D84B2B44213D0CA48007C00F0CD
:10520000400070B1601C1DF800001DF8041040EA59
:10521000012000B23880287840F040002870A01C9F
:1052200084B2B44213D0BF48007C00F0200070B1BB
:10523000601C1DF800001DF8041040EA012000B2B7
:105240007880287840F020002870A01C84B2B442F6
:1052500013D0B448007C00F0100070B1601C1DF841
:1052600000001DF8041040EA012000B2B880287840
:1052700040F010002870A01C84B200200AE7F8B5A6
:1052800004460F461646A74890F8240010B94FF080
:10529000FF30F8BDA348807A10B94FF0FF30F8E72F
:1052A000A04A1268917A9F4A526810786B4602228F
:1052B00001F0E2FF10B14FF0FF30EAE79DF8010086
:1052C0009DF8001040EA0125A54203DA0020307065
:1052D000401EDEE7934840684088B5EB600F17DD5D
:1052E000904A1268517C8F4A526810786B460122AE
:1052F00001F0C2FF10B14FF0FF30CAE79DF8000087
:1053000000F0100020B1FFF7B1F86FF00100C0E726
:10531000E2B2844B1B68D97A824B5B6818783B46B3
:1053200001F0AAFF10B14FF0FF30B2E795FBF4F0A7
:10533000401E30700020ACE701467A4880F8221009
:10534000002070477CB5054676494968087801AB6E
:1053500004220D2101F090FF08B107207CBD9DF8CB
:105360000700C0F301109DF8041001F0E00140EACD
:10537000E1008DF800009DF80700C0F381009DF862
:10538000051001F0E00140EAE1008DF801009DF810
:10539000070000F003009DF8061001F0E00140EA6C
:1053A000E1008DF8020000241CE01DF8040018B98B
:1053B000002045F8240013E05B4845F8240006E08F
:1053C00055F82400594904F025F845F824001DF843
:1053D0000400401EC0B20DF804000028F0D100BF48
:1053E000601CC4B2032CE0DB0020B7E72DE9FE4FC0
:1053F00006460F4600256846FFF7A4FF002442E05A
:1054000056F8240057F82410A0EB010ABAF1000F57
:1054100001DB514601E0CAF10001084603F09AFFA2
:1054200083464FF08F4103F063FE80465DF8240011
:10543000002103F01FFF16D05DF82410404603F052
:1054400057FE82464FF07E5104F0E2F8814629F083
:10545000004A3748416A504604F0A8F812D20120A9
:10546000A04005430EE03248C169404603F09EFF6C
:1054700005D32F48016A404604F098F802D2012073
:10548000A0400543641C032CBADB2846BDE8FE8F10
:105490002DE9FC5F06460F46002522494968087839
:1054A00001AB03220D2101F0E7FE10B10720BDE89A
:1054B000FC9F9DF8040000F01F008DF804009DF88B
:1054C000050000F01F008DF805009DF8060000F0B3
:1054D0001F008DF80600002462E056F8240057F8FB
:1054E0002410A0EB010BBBF1000F01DB594601E0DA
:1054F000CBF10001084603F02DFF4FF08F410090E3
:1055000003F0F6FD814601A8005DC0B308490868B4
:1055100003F038FF83465946064803F0E9FD80460C
:105520000FE00000BC0000207B14AE3E1D5A843FFB
:10553000049E000800B04C45FE49404603F06AFF57
:10554000804601A8005D401EC0B201A90855002890
:10555000F2D14146484603F0CBFD83464FF07E51E1
:1055600004F056F882462AF0004BF3488169584609
:1055700004F01CF813D20120A04005430FE0FFE720
:10558000ED480169484603F011FF05D3EA48416937
:10559000484604F00BF802D20120A0400543641CE9
:1055A000032C9ADB284682E72DE9F04F87B00546A9
:1055B0000C46914601208DF8100000208DF8110056
:1055C000DE4A1268917CDD4A5268107804AB0222F0
:1055D00001F007FF20B14FF0FF3007B0BDE8F08FBA
:1055E000C820FAF700FF00208DF81000D34A126897
:1055F000D17BD24A5268107804AB012201F0F1FE4F
:1056000010B14FF0FF30E8E7CC4A12685179CB4A2D
:105610005268107804AB012201F0E3FE10B14FF0A4
:10562000FF30DAE7C54A1268917CC44A52681078A4
:1056300004AB012201F0D5FE10B14FF0FF30CCE7F2
:10564000BE4A1268D17DBD4A5268107804AB01226F
:1056500001F0C7FE10B14FF0FF30BEE7B74A126845
:105660001179B64A5268107804AB012201F0B9FEF4
:1056700010B14FF0FF30B0E70C208DF81000AF4AAA
:1056800012681179AD4A5268107804AB012201F01A
:10569000A8FE10B14FF0FF309FE70F20FAF7A3FEEE
:1056A000A648806A407A8DF81000A44A1268917862
:1056B000A24A5268107804AB012201F092FE10B1A8
:1056C0004FF0FF3089E79D48806A007A8DF810001E
:1056D0009A4A12685178994A5268107804AB0122AC
:1056E00001F07FFE10B14FF0FF3076E7B9F1000F07
:1056F00007D09248806A807A40F0E0008DF8100070
:1057000004E08E48806A807A8DF810008B4A126817
:1057100091798A4A5268107804AB012201F061FE47
:1057200010B14FF0FF3058E7B9F1000F07D08348B0
:10573000806AC07A40F0E0008DF8100003E07E48F7
:10574000C07A8DF810007D4A1268D1797B4A526880
:10575000107804AB012201F044FE10B14FF0FF308D
:105760003BE7B9F1000F02D0C820FAF73CFE402019
:105770008DF81000714A12681179704A52681078D9
:1057800004AB012201F02DFE10B14FF0FF3024E7F1
:1057900078208DF81000694A12685179674A52687A
:1057A000107804AB012201F01CFE10B14FF0FF3065
:1057B00013E761498889FAF716FE00208DF810007A
:1057C0005E4A126851795D4A5268107804AB012232
:1057D00001F007FE10B14FF0FF30FEE6574A1268A5
:1057E000917A564A5268107804AB022201F044FDC7
:1057F00010B14FF0FF30F0E69DF811009DF8101049
:1058000040EA012B0C209BFBF0F0C6B20020A86000
:1058100068602860A06060602060824665E0474A5A
:105820001268D17A454A5268107804AB0C2201F014
:1058300023FD10B14FF0FF30CFE69DF811009DF829
:10584000101040EA012000B2ADF808009DF81300E6
:105850009DF8121040EA012000B2ADF80A009DF850
:1058600015009DF8141040EA012000B2ADF80C00BC
:10587000BDF90810206808442060BDF90A1060686E
:1058800008446060BDF90C10A0680844A0609DF851
:1058900017009DF8161040EA012000B2ADF8000094
:1058A0009DF819009DF8181040EA012000B2ADF8EB
:1058B00002009DF81B009DF81A1040EA012000B27A
:1058C000ADF80400BDF90010286808442860BDF94F
:1058D0000210686808446860BDF90410A8680844AC
:1058E000A8600AF1010000F0FF0AB24597DB1248F8
:1058F000D0F800C02868C117090441EA1041070424
:1059000062460023384601F0B2FE32460023CDE95C
:10591000020101F0ACFE28600748D0F800C06868BA
:10592000C117090441EA10410704624600233846C2
:1059300006E0000054E3853F049E0008BC00002000
:1059400001F095FE32460023CDE9020101F08FFE01
:105950006860FE48D0F800C0A868C117090441EA91
:105960001041070462460023384601F080FE3246AB
:105970000023CDE9020101F07AFEA860F348D0F8D7
:1059800004C02168C817000440EA11480F046246A9
:1059900000233846414601F06AFE32460023CDE935
:1059A000020101F064FE2060E848D0F804C060689D
:1059B000C117090441EA1041070462460023384632
:1059C00001F055FE32460023CDE9020101F04FFE01
:1059D0006060DE48D0F804C0A068C117090441EA3D
:1059E0001041070462460023384601F040FE32466B
:1059F0000023CDE9020101F03AFEA060A068002872
:105A000004DDA068A0F58030A06003E0A06800F588
:105A10008030A0600020E0E538B50446CC4890F81E
:105A20002400A04201D1002038BD24B3C84890F81A
:105A3000250010B94FF0FF30F6E70020FEF74AFBD3
:105A40000020FEF76FFCC249C88CFEF7DCFE002088
:105A50000090BF49496808786B460122232101F074
:105A6000C0FC0121BA4880F824100120FEF732FB67
:105A7000FEF7FCFC13E00020FEF72CFBB448007C92
:105A80000090B349496808786B460122232101F050
:105A9000A8FC0021AE4880F82410FEF7E7FC0020A7
:105AA000C2E72DE9F04F8DB083460F4602200C90DF
:105AB000A74890F8240020B10020FFF7ADFF012691
:105AC00000E0002603A8FFF7E2F905A8FFF7FFF9B9
:105AD00001A8FFF720FA02A8FFF742FA9C4890F8C5
